:020000040000fa
:080000000002040000000000f2
:020000040000fa
:040008007c04000074
:020000040000fa
:04000c007c04000070
:020000040000fa
:040010007c0400006c
:020000040000fa
:040014007c04000068
:020000040000fa
:040018007c04000064
:020000040000fa
:04001c007c04000060
:020000040000fa
:040020007c0400005c
:020000040000fa
:040024007c04000058
:020000040000fa
:040028007c04000054
:020000040000fa
:04002c007c04000050
:020000040000fa
:040030007c0400004c
:020000040000fa
:040034007c04000048
:020000040000fa
:040038007c04000044
:020000040000fa
:04003c007c04000040
:020000040000fa
:040040007c0400003c
:020000040000fa
:040044007c04000038
:020000040000fa
:040048007c04000034
:020000040000fa
:04004c007c04000030
:020000040000fa
:040050007c0400002c
:020000040000fa
:040054007c04000028
:020000040000fa
:040058007c04000024
:020000040000fa
:04005c007c04000020
:020000040000fa
:040060007c0400001c
:020000040000fa
:040064007c04000018
:020000040000fa
:040068007c04000014
:020000040000fa
:04006c007c04000010
:020000040000fa
:040070007c0400000c
:020000040000fa
:040074007c04000008
:020000040000fa
:040078007c04000004
:020000040000fa
:04007c007c04000000
:020000040000fa
:040080007c040000fc
:020000040000fa
:040084007c040000f8
:020000040000fa
:040088007c040000f4
:020000040000fa
:04008c007c040000f0
:020000040000fa
:040090007c040000ec
:020000040000fa
:040094007c040000e8
:020000040000fa
:040098007c040000e4
:020000040000fa
:04009c007c040000e0
:020000040000fa
:0400a0007c040000dc
:020000040000fa
:0400a4007c040000d8
:020000040000fa
:0400a8007c040000d4
:020000040000fa
:0400ac007c040000d0
:020000040000fa
:0400b0007c040000cc
:020000040000fa
:0400b4007c040000c8
:020000040000fa
:0400b8007c040000c4
:020000040000fa
:0400bc007c040000c0
:020000040000fa
:0400c0007c040000bc
:020000040000fa
:0400c4007c040000b8
:020000040000fa
:0400c8007c040000b4
:020000040000fa
:0400cc007c040000b0
:020000040000fa
:0400d0007c040000ac
:020000040000fa
:0400d4007c040000a8
:020000040000fa
:0400d8007c040000a4
:020000040000fa
:0400dc007c040000a0
:020000040000fa
:0400e0007c0400009c
:020000040000fa
:0400e4007c04000098
:020000040000fa
:0400e8007c04000094
:020000040000fa
:0400ec007c04000090
:020000040000fa
:0400f0007c0400008c
:020000040000fa
:0400f4007c04000088
:020000040000fa
:0400f8007c04000084
:020000040000fa
:0400fc007c04000080
:020000040000fa
:040100007c0400007b
:020000040000fa
:040104007c04000077
:020000040000fa
:040108007c04000073
:020000040000fa
:04010c007c0400006f
:020000040000fa
:040110007c0400006b
:020000040000fa
:040114007c04000067
:020000040000fa
:040118007c04000063
:020000040000fa
:04011c007c0400005f
:020000040000fa
:040120007c0400005b
:020000040000fa
:040124007c04000057
:020000040000fa
:040128007c04000053
:020000040000fa
:04012c007c0400004f
:020000040000fa
:040130007c0400004b
:020000040000fa
:040134007c04000047
:020000040000fa
:040138007c04000043
:020000040000fa
:04013c007c0400003f
:020000040000fa
:040140007c0400003b
:020000040000fa
:040144007c04000037
:020000040000fa
:040148007c04000033
:020000040000fa
:04014c007c0400002f
:020000040000fa
:040150007c0400002b
:020000040000fa
:040154007c04000027
:020000040000fa
:040158007c04000023
:020000040000fa
:04015c007c0400001f
:020000040000fa
:040160003c0300005c
:020000040000fa
:040164007c04000017
:020000040000fa
:040208007c04000072
:020000040000fa
:04020c007c0400006e
:020000040000fa
:040210007c0400006a
:020000040000fa
:040214007c04000066
:020000040000fa
:040218007c04000062
:020000040000fa
:04021c007c0400005e
:020000040000fa
:040220007c0400005a
:020000040000fa
:040224007c04000056
:020000040000fa
:040228007c04000052
:020000040000fa
:04022c007c0400004e
:020000040000fa
:040230007c0400004a
:020000040000fa
:040234007c04000046
:020000040000fa
:040238007c04000042
:020000040000fa
:04023c007c0400003e
:020000040000fa
:040240007c0400003a
:020000040000fa
:040244007c04000036
:020000040000fa
:040248007c04000032
:020000040000fa
:04024c007c0400002e
:020000040000fa
:040250007c0400002a
:020000040000fa
:040254007c04000026
:020000040000fa
:040258007c04000022
:020000040000fa
:04025c007c0400001e
:020000040000fa
:040260007c0400001a
:020000040000fa
:040264007c04000016
:020000040000fa
:040268007c04000012
:020000040000fa
:04026c007c0400000e
:020000040000fa
:040270007c0400000a
:020000040000fa
:040274007c04000006
:020000040000fa
:040278007c04000002
:020000040000fa
:04027c007c040000fe
:020000040000fa
:040280007c040000fa
:020000040000fa
:040284007c040000f6
:020000040000fa
:040288007c040000f2
:020000040000fa
:04028c007c040000ee
:020000040000fa
:040290007c040000ea
:020000040000fa
:040294007c040000e6
:020000040000fa
:040298007c040000e2
:020000040000fa
:04029c007c040000de
:020000040000fa
:0402a0007c040000da
:020000040000fa
:0402a4007c040000d6
:020000040000fa
:0402a8007c040000d2
:020000040000fa
:0402ac007c040000ce
:020000040000fa
:0402b0007c040000ca
:020000040000fa
:0402b4007c040000c6
:020000040000fa
:0402b8007c040000c2
:020000040000fa
:0402bc007c040000be
:020000040000fa
:0402c0007c040000ba
:020000040000fa
:0402c4007c040000b6
:020000040000fa
:0402c8007c040000b2
:020000040000fa
:0402cc007c040000ae
:020000040000fa
:0402d0007c040000aa
:020000040000fa
:0402d4007c040000a6
:020000040000fa
:0402d8007c040000a2
:020000040000fa
:0402dc007c0400009e
:020000040000fa
:0402e0007c0400009a
:020000040000fa
:0402e4007c04000096
:020000040000fa
:0402e8007c04000092
:020000040000fa
:0402ec007c0400008e
:020000040000fa
:0402f0007c0400008a
:020000040000fa
:0402f4007c04000086
:020000040000fa
:0402f8007c04000082
:020000040000fa
:0402fc007c0400007e
:020000040000fa
:040300007c04000079
:020000040000fa
:040304007c04000075
:020000040000fa
:040308007c04000071
:020000040000fa
:04030c007c0400006d
:020000040000fa
:040310007c04000069
:020000040000fa
:040314007c04000065
:020000040000fa
:040318007c04000061
:020000040000fa
:04031c007c0400005d
:020000040000fa
:040320007c04000059
:020000040000fa
:040324007c04000055
:020000040000fa
:040328007c04000051
:020000040000fa
:04032c007c0400004d
:020000040000fa
:040330007c04000049
:020000040000fa
:040334007c04000045
:020000040000fa
:040338007c04000041
:020000040000fa
:04033c007c0400003d
:020000040000fa
:040340007c04000039
:020000040000fa
:040344007c04000035
:020000040000fa
:040348007c04000031
:020000040000fa
:04034c007c0400002d
:020000040000fa
:040350007c04000029
:020000040000fa
:040354007c04000025
:020000040000fa
:040358007c04000021
:020000040000fa
:04035c007c0400001d
:020000040000fa
:040360003c0300005a
:020000040000fa
:040364007c04000015
:020000040000fa
:100400000f0022000eff22000e01880000000000f5
:10041000000020000000e000020032000001200087
:100420002002880014000700350107000000e000ea
:1004300003003a00a022290001002000020037003a
:100440000000200001002000810f70000100320038
:1004500014000700000020000000e000020032004d
:100460000000020000000000769d02000000000075
:100470000040da000000fe004440a900c035200022
:100480000000e0000300320010002000a0018800fe
:100490004440a800000006008a1f78008b1f7800e7
:1004a0000000060091018800800478000000eb0045
:1004b0001a003700e284440032a0b4009905ba0063
:1004c000e284440032a0b4009906ba00e2844400f9
:1004d00032a0b4000006eb00476fde00fd07b2005b
:1004e000636ce10003003a00ebff07000000eb0043
:1004f0000a003700606ce10004003a00005deb0088
:100500008b05e900fdff3e00040037006168e10053
:10051000010032000086eb000b00070019c7ba008b
:100520001905ba000e04e00003003a000a00e000da
:10053000e0ff3a0000000600fe07b2009e018800be
:100540008a047800f5ff3700395dba008b05e900b1
:100550000c003200295dba008b05e900080032006a
:100560000c00e00003003a00e284440032a0b40032
:10057000f5ff370019ddba008b05e900faff3a00f4
:100580008904e800e184440032a0b40000000600c1
:100590002a8d0400000000008a8d04000000000085
:1005a000d08c040000000000968d040000000000c4
:1005b0008c8c0400000000007e8e0400000000000f
:1005c000be8c040000000000228e04000000000029
:1005d000e28c040000000000a08e04000000000077
:1005e000188d040000000000f48e040000000000dc
:1005f000528f0400000000007e8d04000000000007
:10060000e28d040000000000028e040000000000e3
:10061000a28d040000000000c28d04000000000054
:10062000388e0400000000004e8e04000000000020
:10063000668e040000000000cc8e04000000000064
:10064000e08e040000000000b68e040000000000f0
:10065000fe8e0400000000000a8f0400000000006d
:10066000228f0400000000003a8f04000000000008
:100670005e8f0400000000003600f800809fbe007e
:10068000829fbe00849fbe00869fbe003400f8009b
:1006900010002000a00188000000fa002023a9001b
:1006a0000000000000198000610060000000e00010
:1006b000fcff320000188000709f88002003a90012
:1006c0002023a800a0408000b01f8800b040800018
:1006d000c01f88008dc0a900354b0700b0418000c5
:1006e0000000e00018003a000163800000002600ce
:1006f000808f500002003400803e2000704088004f
:10070000704080000000e000060032007040800071
:100710000000e90070408800cd62a800cd22a90049
:100720000900370001638000f0042000808f500032
:1007300003003400cd62a900cd22a80002003700da
:10074000cd62a900cd22a90080408000e90f5000b1
:1007500037003200e90f50000c003c00e30f50005e
:100760001c003200e30f500003003c00e10f50007a
:100770001300320053003700e50f50001c00320018
:10078000e70f5000210032004e003700ed0f5000ff
:1007900037003200ed0f500003003c00eb0f50001b
:1007a0002a00320047003700ef0f500037003200b8
:1007b00001082000810f50003d0032004100370049
:1007c000809f8000b0408800809f8000a04088000b
:1007d00041003700809f80002060880040608000da
:1007e000b040880040608000a04088003a00370098
:1007f000809f80003061880040618000b0408800a8
:1008000040618000a040880033003700809f800056
:100810002060880040608000306188004061800076
:10082000b040880040618000a04088002a00370066
:10083000809f8000b0628800f0628000b040880035
:10084000e0628000a040880023003700809f800085
:100850002060880040608000b0628800f062800004
:10086000b0408800e0628000a04088001a00370095
:10087000809f8000b0628800f0628000b0408800f5
:10088000e0628000a040880013003700809f800055
:100890002060880040608000b0628800f0628000c4
:1008a000b0408800e0628000a04088000a00370065
:1008b00060628000b040880060628000a0408800d4
:1008c00005003700809f8000b0408800809f800036
:1008d000a0408800000000000080fa003400f90009
:1008e0004f03be004f02be004f01be004f00be00ce
:1008f0003600f900004006000040da000000fe006b
:1009000000000500889fbe008a9fbe0030044200a0
:10091000b0844a0030054b0090854b006000b10068
:100920000898be000a90be000440e10005c8e1003e
:1009300006d0e10007d8e100020031006800400065
:100940001008e8004f05be004f04be00000006007e
:10095000889fbe008a9fbe003004be002005be00f6
:100960000418540005985c0006185d0007985d00a7
:10097000110020000440e10005c8e10006d0e100bc
:1009800007d8e100010039008000eb00108810005a
:100990004f05be004f04be00000006001200fa0022
:1009a000889fbe008a9fbe008c9fbe00e0b79f005c
:1009b000f1b79f0082bf9f0093bf9f000605be0056
:1009c0000404be000000eb00d0b79f00c0b79f003a
:1009d000b0b79f00a0b79f0090b79f0000067800b7
:1009e0005fb19700cfb09700820141003fb0970000
:1009f0000200e00004003d00370007007e80570041
:100a0000c0ff070003003700330007007e80570057
:100a1000cfff0700dfb697000d00e0000c003500a7
:100a20006fb29700ffb297000fbb97009fbb970074
:100a300010002000010020006011b80000027200c8
:100a40008182720002037300838373001b0007001e
:100a50000c06e80001042000810f5600e0ff3a0078
:100a60000d00e00004003d000802be000a03be00c5
:100a70007e805700a3ff07005fa897000000e000fa
:100a800005003a001fb29700afb297003fb397003e
:100a9000cfb39700090007006fb09700ffb0970031
:100aa0000fb997009fb997004f06be004f05be00d3
:100ab0004f04be000080fa0000000600010007009d
:100ac00000000600a4b79f00b5b79f00c6b79f00ff
:100ad000d7b79f00000006004f09de008281710039
:100ae000b3b79f004f01de0081804000828070001c
:100af000a1b79f008fb097004f09de0000004000b3
:100b00000200700090b79f007fa897004f01de00a1
:100b1000818040008280700081b79f000d00070037
:100b20004f3ade000000400004007000f0af9f006c
:100b3000080007000402420085824a0006034b00b9
:100b400087834b00dfff07000802be000a03be00d8
:100b5000000006002fb29700bfb297004fb3970076
:100b6000dfb3970000000600881f780018002000ff
:100b7000881f780089ff07008f87e9004f047800fd
:100b800000000600801feb0084ff07008f87e9004c
:100b900000000600889fbe008a9fbe00e00f500044
:100ba000e08f5800e00f5900e08f59000c003d0025
:100bb0006044b8006055b8000000540081805c00bb
:100bc00002015d0083815d00180020001500070010
:100bd00008003d00180007000004eb000500370086
:100be0000004eb000f00070002003d0012000700a8
:100bf00018002000dcff07000800e00006003200bb
:100c00006022b8006033b8000000520081805a00b2
:100c100002015b0083815b004f05be004f04be00f4
:100c200000000600e00f5200e08f5a00e00f5b006a
:100c3000e08f5b00000006006044b8006055b8001b
:100c40000402540085825c0006035d0087835d001a
:100c500000000600889fbe008a9fbe008c1f78009f
:100c6000e00f5000e08f5800e00f5900e08f59006e
:100c70000d003d006044b8006055b800000054000d
:100c800081805c0002015d0083815d001c0020000a
:100c90000820e10009a8e1000ab0e1000bb8e1007a
:100ca0000d003d00080037000006eb00e00f520089
:100cb000e08f5a00e00f5b00e08f5b0006003d0014
:100cc0006044b8006055b8000402540085825c009e
:100cd00006035d0087835d00aaff07000c00e000ab
:100ce000060032006022b8006033b80000005200f5
:100cf00081805a0002015b0083815b004f0678000f
:100d00004f05be004f04be0000000600889fbe00d5
:100d10008a9fbe008c1f78000006eb00e00f500099
:100d2000e08f5800e00f5900e08f590007003d00a8
:100d30006044b8006055b8000000540081805c0039
:100d400002015d0083815d001c002000e00f520065
:100d5000e08f5a00e00f5b00e08f5b0007003d0072
:100d60006044b8006055b8000402540085825c00fd
:100d700006035d0087835d000c00a2000c000700e5
:100d80000c00e000060032006022b8006033b800ba
:100d90000000520081805a0002015b0083815b00e9
:100da0004f0678004f05be004f04be00000006004d
:100db000889fbe008a9fbe008c9fbe000404b800be
:100dc0000506b8008904460060854e000606b80096
:100dd0000a054600e0854e000706b8008b05460070
:100de000040eb800890446000a854e00e0854d00d7
:100df000050eb8000a0546008b854e00060eb800a9
:100e00008b0546000416b8000a0546008b854e0087
:100e10000516b8008b054600041eb8008b05460079
:100e20000800be000a01be004f06be004f05be000e
:080e30004f04be0000000600a3
:020000040000fa
:100e38000600fa0010079800210798000000eb0050
:100e4800000f78009e00900021628800cd22a80043
:100e58000140fe001e0078008000400000232800aa
:100e68000080400010007800506288001e00780062
:100e78000000e800000f7800364c07009e0078005c
:100e880030062000808f5000f1ff34000140fe0042
:100e9800304c07002e0090000000e9002007980061
:100ea8002e0090000000e000f8ff3a000140fe002c
:100eb8001e0078000000e900000f78001e0078008e
:100ec80080004000002328000080400010007800c7
:100ed800506288001f4c07001e0078000000e000e8
:100ee800f2ff3a00cd22a9000080fa0000000600b7
:100ef8000600fa001007980041479800574c070071
:100f080000082000000f7800030037001e0078005a
:100f18000080d100000f78004e4090000000fb00d8
:100f28001e0060000000e000f8ff32001e0078009c
:100f38000080d100000f78004e4090000000fb00b8
:100f48001e0060000000e0000400320091672000ed
:100f58001e009000b6ff0700030037008122200022
:100f68001e009000b2ff07001e0078000080d1002c
:100f7800000f780020032000a04b07001e00780017
:100f88000000e000ecff3a00400620009b4b070001
:100f9800374c07000080fa00000006000200fa0043
:100fa8000000eb00000f78000b0037001e007800ef
:100fb80080004000802f28000080400090007800ca
:100fc8001e0078000001400000c820000000410019
:100fd800010878001e0fe8001e007800e50f500099
:100fe800f2ff340030062000d04188000080fa006b
:040ff80000000600ef
:020000040000fa
:020000040001f9
:1000000000010000f07f0000180000000400000064
:10001000feff0000ff7f000000020000f07f0000f4
:100020001800000004000000feff0000ff7f000039
:1000300000040000f07f0000180000000400000031
:10004000feff00009d5a000000080000d07f000065
:100050001800000004000000ffff0000ff7f000008
:1000600000100000b07f0000180000000400000035
:10007000ffff00009d5a0000fd7f0000f77f000099
:10008000ec7f0000dd7f0000ca7f0000b37f00002e
:10009000977f0000777f0000547f00002b7f0000d7
:1000a000ff7e0000cf7e00009a7e0000627e00008e
:1000b000257e0000e47d00009f7d0000567d00004d
:1000c000097d0000b87c0000637c00000a7c000011
:1000d000ae7b00004d7b0000e87a0000807a0000d3
:1000e000147a0000a579000031790000ba78000088
:1000f0003f780000c17700003f770000ba7600002b
:1001000031760000a57500001675000083740000ac
:10011000ed73000054730000b77200001872000005
:1001200075710000d0700000277000007c6f000027
:10013000ce6e00001d6e0000696d0000b36c000003
:10014000fa6b00003e6b0000806a0000c06900008e
:10015000fd6800003868000071670000a7660000b5
:10016000db6500000e6500003e6400006d6300006a
:1001700099620000c4610000ed600000146000009e
:100180003a5f00005e5e0000815d0000a25c00003e
:10019000c25b0000e15a0000fe5900001b5900003c
:1001a00036580000505700006a5600008255000083
:1001b0009a540000b1530000c7520000dd51000006
:1001c000f2500000065000001a4f00002e4e0000b2
:1001d000424d0000554c0000684b00007b4a000077
:1001e0008e490000a1480000b4470000c746000047
:1001f000da450000ee44000002440000164300000f
:100200002b42000040410000564000006c3f0000bf
:10021000833e00009b3d0000b33c0000cd3b00004e
:10022000e73a0000023a00001e3900003b380000a7
:10023000593700007836000098350000ba340000c5
:10024000dd33000001330000263200004d31000094
:10025000753000009e2f0000c92e0000f62d000012
:10026000242d0000532c0000852b0000b82a00002c
:10027000ec290000232900005b28000095270000de
:10028000d02600000e2600004d2500008f2400001f
:10029000d2230000172300005e220000a7210000e7
:1002a000f22000003f2000008e1f0000df1e000033
:1002b000321e0000871d0000df1c0000381c0000fb
:1002c000931b0000f11a0000511a0000b31900003e
:1002d000171900007d180000e51700004f170000f7
:1002e000bc1600002b1600009c1500000f15000026
:1002f00084140000fb13000075130000f1120000cd
:100300006f120000ef11000071110000f5100000e5
:100310007b100000041000008f0f00001b0f000076
:10032000aa0e00003b0e0000ce0d0000630d000081
:10033000fa0c0000930c00002e0c0000cb0b000008
:100340006b0b00000c0b0000af0a0000540a000009
:10035000fb090000a40900004e090000fb08000092
:10036000a90800005a0800000c080000c00700009f
:10037000750700002d070000e6060000a10600003a
:100380005e0600001c060000dc0500009e05000063
:100390006105000026050000ec040000b404000024
:1003a0007e0400004904000015040000e30300007f
:1003b000b303000084030000560300002a0300007a
:1003c000ff020000d5020000ad020000860200001e
:1003d000610200003d0200001a020000f801000066
:1003e000d7010000b80100009a0100007d01000063
:1003f00061010000470100002d010000150100000f
:10040000fe000000e8000000d2000000be00000076
:10041000ac0000009a000000890000007900000094
:100420006a0000005c0000004f0000004400000073
:10043000390000002f000000260000001e00000010
:1004400017000000110000000c0000000700000071
:100450000400000002000000000000000000000096
:100460000000000008000000200000004a0000001a
:1004700083000000cd000000280100009201000070
:100480000d0200009702000032030000dc030000b0
:10049000950400005e050000360600001d07000000
:1004a0001208000016090000280a0000480b00008e
:1004b000760c0000b10d0000f90e00004d10000098
:1004c000ae1100001a13000093140000161600006d
:1004d000a41700003d190000e01a00008c1c000069
:1004e000411e0000ff1f0000c621000094230000f1
:1004f000692500004527000028290000102b000076
:10050000fe2c0000f12e0000e8300000e432000074
:10051000e2340000e3360000e7380000ed3a000066
:10052000f33c0000fb3e0000034100000b430000d1
:1005300011450000174700001b4900001c4b00003c
:100540001a4d0000164f00000d510000005300002e
:10055000ee540000d6560000b9580000955a00002d
:100560006a5c0000385e0000ff5f0000bd610000b3
:10057000726300001e650000c16600005a6800003a
:10058000e86900006b6b0000e46c0000506e000036
:10059000b16f0000057100004d720000887300000b
:1005a000b6740000d6750000e8760000ec77000015
:1005b000e1780000c8790000a07a0000697b0000a3
:1005c000227c0000cc7c0000677d0000f17d0000f3
:1005d0006c7e0000d67e0000317f00007b7f000033
:1005e000b47f0000de7f0000f67f0000ff7f000088
:1005f0004032000053000000ccaa0000b708000001
:10060000ce1c000000000000e70000000401000014
:1006100024010000470100006f0100009c01000060
:10062000ce01000007020000460200008d0200001b
:10063000dd020000370300009b0300000c040000f3
:100640008a04000018050000b70500006a060000d3
:1006500032070000130800000f0900002a0a0000fa
:10066000680b0000cc0c00005c0e00001d100000a8
:100670001412000049140000c2160000891900007d
:10068000a71c00002620000012240000792800008a
:100690006a2d0000f43200002c39000026400000d2
:1006a000fa470000c25000009d5a0000ab650000f0
:0806b00013720000ff7f00003f
:020000040000fa
:020000040001f9
:1006b8000200fa00100280004500de00674060007a
:1006c8000080fb00000f780011028000000e20005f
:1006d8000100700010028800000000006c0e070086
:1006e8001e00780000407800674060000080fb0032
:1006f800670060004500dd0012028000f1f12f0064
:1007080081006100010070001002880000000000f4
:100718000080fa00000006000c00fa00004f980064
:10072800114f9800224f980032c0bf000080fb0094
:100738001007980002802000030020000e48900057
:100748008080fb00004021000088b900000078008c
:100758008000eb0002014000838148001e489000a1
:100768000080fb004a00dd008000eb000200400032
:10077800838048004008de000040780032e0b7007f
:100788000080200001002000000178001e48900031
:100798008081fb000e4890000080fb006500b900d6
:1007a80000007800008041004a00dd0000004100a0
:1007b800200798002e009000310e0700604798002f
:1007c8002e4890000080fb00f30f50000a00320012
:1007d800f40f50000e003200f20f500012003a00e1
:1007e8006e4090000080fb00640060004280de00e4
:1007f800004f78000f0037006e4090000080fb002b
:10080800680060004380de00004f78000900370070
:100818006e4090000080fb00700060004480de00a5
:10082800004f7800030037000040eb00004f7800cd
:10083800000000001e0090000040780032e0b70081
:100848001e80fb000080fa00000006000600fa0087
:10085800404798005147980032c0bf000080fb0015
:10086800000f780002802000030020004e40900016
:100878008080fb00004021000088b900000078005b
:100888008000eb0002014000838148005e40900038
:100898000080fb004a00dd008000eb000200400001
:1008a800838048004008de000040780032e0b7004e
:1008b80020042400003b8800008020000100200064
:1008c800000178005e4090008081fb004e4090005f
:1008d8000080fb006500b90000007800008041003e
:1008e8004a00dd0000004100100798009e009000bb
:1008f8001e009000f70d07006dff07001e0078002e
:100908000040780032e0b7000080fa0000000600de
:100918000c00fa00204f98000000eb00000f780050
:1009280032c0bf000080fb00300798000000eb00d9
:1009380010079800030037001e0090000000e80030
:10094800100798001e009000e40f500008003c00bb
:100958001e0090000040780032c1b300804078004b
:100968002e4890006cff0700e10f5000f2ff3200a4
:1009780002802000030020002e4890008080fb00a9
:10098800004021000088b900000078008000eb00da
:1009980002014000838148001e0090004a00dd00eb
:1009a8008000eb0002004000838048004008de0021
:1009b8000040780032e0b7000080200001002000ed
:1009c800000178002e4890000080fb006500b90007
:1009d800800078001e009000008040004a00dd0082
:1009e80000004100200798001e8fe8002e009000ac
:1009f8000080e800200798002e009000a00d070056
:100a0800004f9800f03f20009e007800808f500033
:100a180003003c000e489000e14f4000f2ff3a000e
:100a2800004020009e007800808f500002003a00ad
:100a38000000eb00000f78003e00900000407800b6
:100a480032e0b7001e0078000080fa0000000600bf
:100a58001400fa00881f78002057980032c0bf00a1
:100a68000080fb00600798000000eb00000f780092
:100a7800010037001e0fe8001e007800e40f500048
:100a880008003c001e0078000040780032c1b30026
:100a9800804078002e5090001fff0700e10f5000a3
:100aa800f4ff32001e007800e50f500006003a00ff
:100ab8006e0090000040780032e0b7003468a8006b
:100ac80030002000640137001e00e800100798007d
:100ad8001e009000e50f500014003a000000eb00e3
:100ae80010079800120037001e0090000000e80070
:100af800100798001e009000e50f500002003a0011
:100b08000000eb00100798001e0090009e0f500098
:100b180007003a006e0090000040780032e0b7000d
:100b28003428a800100020004b0137000000000006
:100b38001e0090000040780042c1b3008040780059
:100b48002e509000f4fe07000000e000e6ff32009f
:100b580002802000030020002e5090008080fb00bf
:100b6800004021000088b900000078008000eb00f8
:100b780002014000838148001e0090004a00dd0009
:100b88008000eb0002004000838048004008de003f
:100b98000040780032e0b70000802000010020000b
:100ba800000178002e5090000080fb006500b9001d
:100bb800800078001e009000008040004a00dd00a0
:100bc80000004100200798002e50900050ff0700b9
:100bd8000000e000010032003448a80041832000f2
:100be80091407800614f98003408a9000000eb009c
:100bf8003007980010002400003b8800ae009000e9
:100c08000080eb00330d0700ae009000f00f2000cd
:100c18002c0d07002e0090000080e80020079800a7
:100c28000040eb00004f98003e0090000000e800f4
:100c380030079800340037002e5090008080fb0069
:100c4800f00f20000088b900800078000e4890005e
:100c58000080fb0000804000bd010700500798009d
:100c6800a0418000610060000000e0000200320046
:100c78003408a9000d0037005e009000ae00900017
:100c8800140d07000e4890000080fb00ae00900095
:100c98000c0d07002e0090000080e8002007980047
:100ca8003e0090000000e800300798000e489000d1
:100cb8000040e800004f98000c003700ae0090009c
:100cc8000080eb00030d0700ae009000f00f20003d
:100cd800fc0c07002e0090000080e8002007980018
:100ce8003e0090000000e800300798000e48900091
:100cf800e14f400004003a00be009000f0032000dd
:100d0800808f5000edff34000e489000e14f400006
:100d180004003200be009000f0032000808f5000d5
:100d2800c5ff340062fe07000000eb0030079800a2
:100d38000e489000e14f4000f3ff3a00ee48900063
:100d4800428320000149780002802000030020002f
:100d58002e5090008080fb00004021000088b900e0
:100d6800000078008000eb00020140008381480009
:100d78001e0090004a00dd008000eb0002004000e9
:100d8800838048004008de000040780032e0b70069
:100d98000080200001002000000178002e50900003
:100da8000080fb006500b900800078001e009000fc
:100db800008040004a00dd00000041000080e8009b
:100dc800200798002e009000ae0090008100e800f7
:100dd80021079800aa0c0700004f98002e009000e9
:100de800ae0090008100e80021079800a60c0700db
:100df800500798001e0037002e5090008080fb009e
:100e0800f00f20000088b900800078000e4890009c
:100e18000080fb00008040004d010700de009000cc
:100e2800810f5000060032006e00900000407800ec
:100e380032e0b70034e8a8007000200086003700d0
:100e48002e009000ae0090008100e8002107980075
:100e58008b0c0700004f98002e009000ae00900009
:100e68008100e80021079800870c070050079800c8
:100e78000e489000e14f4000dfff3a00008020005c
:100e880001002000000178002e5090000080fb0037
:100e98006500b900800078001e00780000804000de
:100ea8004a00dd0000004100000f9800008020008b
:100eb80001002000000178002e5090000080fb0007
:100ec8006500b900800078001e0090000080400096
:100ed8004a00dd0000004100200798000280200041
:100ee800030020002e5090008080fb00004021006d
:100ef8000088b900000078008000eb000201400083
:100f0800838148001e0078004a00dd008000eb0065
:100f180002004000838048004008de00004078005e
:100f280032e0b7000e089000570c070050079800f1
:100f38000e089000520c0700004f98001e00900009
:100f48000000e00003003a005e0090000000e800a6
:100f5800500798005e009000e30f50000400360030
:100f68003428a8000e4890000044a100004f9800c3
:100f780002802000030020002e5090008080fb009b
:100f8800004021000088b900000078008000eb00d4
:100f980002014000838148001e0090004a00dd00e5
:100fa8008000eb0002004000838048004008de001b
:100fb8000040780032e0b7000e4890000080fb0047
:100fc800ae0090003f0c07005e009000ae0090005d
:100fd800400c070030002400003b8800b4fd0700e7
:100fe8000e4890000084fb002e009000240c07009f
:100ff800800f540006003a002e009000220c0700d3
:10100800800078005e009000808f5000060032005b
:101018006e0090000040780032e0b70034e8a80085
:10102800700020000c0037001e0078000040780097
:10103800804078002e50900004fe07006e0090005b
:101048000040780032e0b700a04180000000d100e5
:10105800614060000080fb004f0478000080fa00c7
:10106800000006000c00fa0032c0bf000080fb0040
:101078003007980000802000010020004008de00b2
:101088000040780032e0b7000040eb00404798008d
:10109800a90037000040eb00004f78000040eb004b
:1010a800104798000000eb00400798000000eb0094
:1010b80010079800030037001e0090000000e800a9
:1010c800100798001e009000e40f500008003e0032
:1010d8001e0090000040780042c1b30080407800b4
:1010e8004e4090008cfd07000000e000f2ff320047
:1010f8001e009000e50f500006003a003e009000e8
:101108000040780032e0b7003428a80010c0b300cf
:101118008d0037000000eb00100798000c00370026
:101128001e0090000040780032c1b3008040780073
:101138004e40900078fd07000000e00001003a00f2
:101148001e4fe8001e0090000000e80010079800fd
:101158001e009000e40f5000f1ff36001e4078009a
:101168000004e00029003a008040eb004e40900067
:10117800b6fd070002802000030020004e409000ca
:101188008080fb00004021000088b9000000780042
:101198008000eb0002004000838048004008de0029
:1011a8000040780032e0b7000080200001002000f5
:1011b800000178004e4090008080fb000040210034
:1011c8000088b9000000780000004100500798002e
:1011d80030002400003b88005e009000800078000a
:1011e8000000eb00bb0b07005e0090008000780059
:1011f800300f2000b30b07002dfd07003e009000c4
:101208000040780032e0b700480037001e40780000
:10121800e14f500004003a003e0090000040780082
:1012280032e0b700410037001e407800e24f50001e
:1012380038003a0032c1b30041c0b3004e409000bc
:1012480035fd07000000e0000b003a0032c1b30092
:101258008040eb004e4090002ffd07000000e000aa
:1012680005003a0040002000100798000040eb00fd
:10127800104798001a0037000000eb00100798008c
:10128800030037001e0090000000e80010079800d7
:101298001e0090000040780032c1b3008040780002
:1012a8004e4090001cfd0700e10f500003003a007b
:1012b8001e009000e40f5000f2ff36001e00900060
:1012c800004078000040e800104798001e40900059
:1012d800e54f500002003a000040eb00104798002c
:1012e8009e4090004e40900058fd07004e409000f0
:1012f80087fd07000000e00002003a004e40900021
:10130800d3fd07003e0090000040780032e0b700af
:10131800060037003e0090000040780032e0b70039
:1013280034c8a80060c0b300070037004e409000e2
:101338000040e800404798004e409000e54f5000bc
:1013480054ff36000040eb000080fa000000060061
:101358000e00fa0060079800ee009000905f2000f1
:10136800808f50000300360034a8a8000080eb00ee
:101378006b003700ee009000100828000008b80045
:101388004708de006047980032c0bf000080fb00bd
:10139800400798000000eb00000f780001003700bc
:1013a8001e0fe8001e007800e40f500008003e0001
:1013b8001e0078000040780032c1b30080407800f9
:1013c8006e409000d4fc0700e10f5000f4ff32009b
:1013d8001e007800e50f500006003a004e0090000d
:1013e8000040780032e0b70034c8a8000080eb0065
:1013f8004b00370002802000030020006e40900060
:101408008080fb00004021000088b90000007800bf
:101418008000eb0002014000838148001e00780034
:101428004a00dd008000eb00020040008380480095
:101438004008de000040780032e0b700008020005d
:1014480001002000000178006e4090000080fb0041
:101458006500b900000078001e0040000000e800a8
:101468004a00dd00000041000080e90010079800f4
:1014780000202000200798001e009000000b0700a5
:10148800500798001e0090000080e900100798009f
:101498002e0090000000e900200798002e00900020
:1014a8000000e0000b0032006e01900010082800d8
:1014b8000010b8004708de00f10f20000180b900d5
:1014c8000000780000005100de009000810f5000fd
:1014d800e9ff3a002e0090000000e00006003a0004
:1014e8003408a8004e0090000040780032e0b700b1
:1014f8000080eb000a0037001e0090000080e80022
:10150800100798001e009000df0a07005007980097
:101518004e0090000040780032e0b7005e00900076
:101528000080fa00000006001200fa007007980018
:10153800010f98008e089000905f2000808f500067
:101548000300360034a8a80050c0b300bc00370020
:101558008e089000100828000008b8004708de0030
:101568001007980032c0bf000080fb0020079800d9
:1015780030002400003b88000000eb00000f7800da
:10158800010037001e0fe8001e007800e40f50002d
:1015980008003c001e007800804078001e00900083
:1015a8000040780032c1b3005bfc0700e10f500037
:1015b800f4ff32001e007800e50f500006003a00e4
:1015c8002e0090000040780032e0b70034c8a80030
:1015d80060c0b3009a00370002802000030020009a
:1015e8009e009000004021000088b90000007800ab
:1015f8008000eb0002014000838148001e00780053
:101608004a00dd008000eb000200400083804800b3
:101618004008de000040780032e0b700008020007b
:1016280001002000000178001e0090006500b9004c
:10163800800078001e007800008040004a00dd002d
:101648000000410030079800418320009140780055
:10165800014f98000e0890003dff0700fe00900023
:10166800810f50000c003a00a0418000610060002a
:101678000000e00008003a002e00900000407800ca
:1016880032e0b7008e48900042832000014978007c
:101698000040eb006a0037008e489000428320002b
:1016a800014978001e0090000040780098fc07006f
:1016b800500798005e0090000000e00006003a0025
:1016c8002e0090000040780032e0b7003488a8006f
:1016d80040c0b3005a003700be0090005e00900082
:1016e80000804000300798007e009000be00900007
:1016f800780a07000e099000100828000010b800aa
:101708004708de00f10f20000180b90000007800d2
:1017180000005100be0090006a0a0700e4fb0700c1
:1017280000000000000000003e009000560a07007c
:1017380000407800404f98004e4890008080fb00a1
:101748007e019000f00f200000006100808f5000a3
:10175800060032002e0090000040780032e0b7000a
:1017680034e8a80070c0b300350037003e00900090
:10177800430a070000407800404f98004e48900008
:101788008081fb000e099000100828000010b800a6
:101798004708de00f10f20000180b9000000780042
:1017a80000005100808f5100060032002e0090008a
:1017b8000040780032e0b70034e8a80070c0b300f9
:1017c8001f0037003e0090000000e8003007980036
:1017d8003e0090002c0a07004800de000040780018
:1017e800404f98004e4890008080fb007e0090009b
:1017f8004800de00808f5000060032002e00900066
:101808000040780032e0b70034e8a80070c0b300a8
:101818000b003700de009000e03f2000808f500072
:1018280003003a001e0090000040780088fc070082
:101838002e0090000040780032e0b7000040eb0036
:101848000080fa00000006000000fa00f90907000d
:1018580000082000ed0907000080fa0000000600db
:101868000000fa00f80907000080fa0000000600ee
:101878000000fa00f4ff070081c0b300d02b22005b
:101888009bbd0700f6ff07000080fa000000060075
:101898000000fa00ecff070081c0b30060032100dc
:1018a80093bd0700eeff07000080fa000000060065
:1018b8000000fa00e4ff070021c0b300d02b22008b
:1018c8008bbd0700e6ff07000080fa000000060055
:1018d8000000fa00dcff070021c0b30070282100d7
:1018e80083bd0700deff07000080fa000000060045
:1018f8000000fa00d4ff0700d1c0b300702821000f
:101908007bbd0700d6ff07000080fa000000060034
:101918000000fa00ccff070021c1b30070282100a5
:1019280073bd0700ceff0700100020000080fa00fa
:10193800000006000000fa00c3ff070091c0b300d2
:10194800702821006abd0700c5ff07000080fa0063
:10195800000006000000fa00bbff070041c1b30009
:101968007028210062bd0700bdff07000080fa0053
:10197800000006000000fa00b3ff0700c1c0b30072
:10198800702821005abd0700b5ff0700200020007d
:101998000080fa00000006000000fa00aaff070015
:1019a80051c0b3007028210051bd0700acff0700eb
:1019b800700020000080fa00000006000000fa0015
:1019c800a1ff070081c1b3007028210048bd0700ae
:1019d800a3ff0700800020000080fa000000060036
:1019e8000000fa0098ff0700d1c1b3007028210059
:1019f8003fbd07009aff0700a00020000080fa0002
:101a0800000006000000fa008fff070031c0b30095
:101a18007028210036bd070091ff070090002000c4
:101a28000080fa00000006000000fa0086ff0700a8
:101a3800e1c0b300702821002dbd070088ff070012
:101a4800d00020000080fa00000006000000fa0024
:101a58007dff070061c1b3007028210024bd070085
:101a68007fff0700f00020000080fa000000060059
:101a78000000fa0074ff0700c1c0b30070282100fd
:101a88001bbd070021c1b3007028210018bd070045
:101a980011c0b3007028210015bd0700f1c2b300c2
:101aa8007028210012bd070011c1b3007028210061
:101ab8000fbd0700f1c3b300702821000cbd07005b
:101ac80067ff07000080fa00000006000000fa0027
:101ad8001c020700206388000b0507001d02070091
:101ae800206388009c050700e60807000080fa00cc
:101af800000006000000fa0096ff07009f06070096
:101b0800400020000080fa00000006000000fa00f3
:101b180088ff070099060700300020000080fa00bf
:101b2800000006000000fa009906070078ff070089
:101b3800100020000080fa00000006000000fa00f3
:101b4800080207002063880021638000804180002c
:101b5800808f500002003a0045ff0700040037005c
:101b68002063800080418800e7040700c50807005b
:101b7800400020000080fa00000006000000fa0083
:101b880008020700206388002163800080418000ec
:101b9800808f500002003a003dff07000400370024
:101ba8002063800080418800d7040700b50807003b
:101bb800400020000080fa00000006000000fa0043
:101bc800050207002063880021638000904180009f
:101bd800808f500002003a0025ff070004003700fc
:101be80020638000904188005b050700a508070076
:101bf800300020000080fa00000006000000fa0013
:101c08000202070020638800216380009041800061
:101c1800808f500002003a001dff070004003700c3
:101c280020638000904188004b0507009508070055
:101c3800300020000080fa00000006000200fa00d0
:101c48001bff0700f7080700000f78001e00780048
:101c58000010a000ed080700cca2a800500020004a
:101c68000080fa00000006000200fa0010ff0700da
:101c7800ec080700000f78001e0078000010a10093
:101c8800e2080700cca2a900200020000080fa008a
:101c9800000006000200fa002b010700000f780080
:101ca8001e0078000000e00002003200f0fe07008d
:101cb8000100370006ff0700500020000080fa00ee
:101cc800000006000200fa0032010700000f780049
:101cd8001e0078000000e00002003200ecfe070061
:101ce80001003700fafe0700500020000080fa00cb
:101cf800000006000200fa00edfe0700c908070010
:101d0800000f78001e20a2001e007800bf08070000
:101d18009e007800648060000000e000020032004d
:101d2800cc82a80001003700cc82a90070002000f6
:101d38000080fa00000006000200fa00dcfe07003e
:101d4800b8080700000f78001e0078000030a000d7
:101d5800ae080700cc62a800a00020000080fa00ae
:101d6800000006000200fa00d1fe0700ad080700d7
:101d7800000f78001e0078000030a100a3080700bb
:101d8800cc62a900800020000080fa000000060054
:101d98000200fa003c040700000f78001e007800db
:101da8000000e00001003200b1fe0700a0002000a2
:101db8000080fa00000006000200fa004204070052
:101dc800000f78001e0078000000e00001003200db
:101dd800affe0700a00020000080fa000000060007
:101de8000000fa00b2fe0700e00020000080fa00c0
:101df800000006000000fa00090607000aff0700b5
:101e0800d00020000080fa00000006000200fa005e
:101e1800b3030700000f78001e0078000000e00000
:101e28000200320092fe070001003700a8fe0700fa
:101e3800e00020000080fa00000006000200fa001e
:101e4800ba030700000f78001e0078000000e000c9
:101e5800020032008efe0700010037009cfe0700da
:101e6800e00020000080fa00000006000000fa00f0
:101e7800b806070033010700206388002204070022
:101e88003401070020638800b3040700fd0707003a
:101e9800100020000080fa00000006000000fa0090
:101ea800b306070092fe0700f00020000080fa0049
:101eb800000006000000fa00100020005308070088
:101ec800000120000080fa00000006000200fa006d
:101ed8000000eb00000f7800070037001e007800b4
:101ee8008000400000002100008040008000eb00de
:101ef800010878001e0fe800401f20009e007800af
:101f0800808f5000f5ff34000080fa0000000600c2
:101f18000200fa00501f200050fd890050fd81008a
:101f28000000e90060fd890000002300401fb000a8
:101f38009063880000002300803eb0008063880022
:101f4800a03e2300401fb000c0638800a03e2300cd
:101f5800803eb000b0638800407d2300401fb00081
:101f6800f0638800407d2300803eb000e063880075
:101f7800e0bb2300803eb00040fd89000000210046
:101f8800609f8800609f8000903eb000509f88004e
:101f98000000eb00000f78000b0037001e007800ef
:101fa80080004000c00328000080400090007800b6
:101fb8001e00780000014000a063210000004100dd
:101fc800010878001e0fe800900f20009e0078009e
:101fd800808f5000f1ff34000080fa0000000600f6
:101fe8000000fa00e04080000080fa0000000600cf
:101ff8000000fa00203f21001060880020088200bd
:10200800000040008000e90010608000008040006f
:10201800006088000000240010088a002008820060
:10202800000040008000e9001008820000804000a5
:1020380000088a000080fa00000006000200fa008a
:10204800000f78001e0078006c00b900800078004e
:10205800000028000080400010007800a060880080
:102068001e0078006c00b900000078008080e8004d
:10207800000028000080400010007800d060880030
:102088001e0078006c00b90000007800e4004000f1
:1020980000002800008040001000780020088a0016
:1020a800200882000000e90030088a001e0078003d
:1020b8006c00b90000007800e8004000000028002b
:1020c8000080400010007800606088001e007800e2
:1020d8006c00b90000007800ea0040000000280009
:1020e8000080400010007800706088000080fa00ce
:1020f800000006000200fa001c28ef00e040800003
:10210800ceff0700baff07000000eb00000f7800c1
:10211800070037001e0078008000400000002400ff
:1021280000804000214d2000010878001e0fe800c3
:10213800000220009e007800808f5000f5ff3400d8
:102148000080fa00000006000200fa000000eb0020
:10215800000f7800e04080000000e800e0408800c0
:10216800e0408000e40f50000400340040002000ec
:10217800e040880010002000000f7800e040800058
:10218800aeff07009aff07001e0078000080fa00e3
:10219800000006000200fa000000eb00000f7800c3
:1021a800e04080000000e900e0408800e040800056
:1021b8000000e00003003d001c28ef001000200094
:1021c800000f7800e04080009cff070088ff0700b0
:1021d8001e0078000080fa00000006000000fa00e7
:1021e80010022000500c8a00500c82000000e90008
:1021f800c06188002047210020618800500c8200bf
:10220800000040008000e90020618000008040005c
:102218001061880080102400600c8a00500c820035
:10222800000040008000e900600c8200008040004f
:10223800400c8a0000ff2700b061880000002100e0
:10224800806188000003200000628800204f210080
:10225800f061880000628000000040008000e90012
:10226800f061800000804000e06188000080fa0092
:10227800000006000200fa00000f78009e007800b7
:10228800a16288000080fa00000006000000fa0041
:10229800a06280000080fa00000006000000fa003a
:1022a800e502070040062000a062880020572100b0
:1022b80090628800020007000080fa000000060013
:1022c8000200fa00a0628000000040008000780050
:1022d800205721000000e90000804000806288004b
:1022e8000000eb00000f7800070037001e007800a0
:1022f8008000400020572100008040008000eb0053
:10230800010878001e0fe800a06280009e00780097
:10231800808f5000f5ff35000080fa0000000600ad
:102328000400fa00000f7800110798009e0078005a
:10233800c14088009e009000d14088000080fa00cb
:10234800000006000000fa00c04080000080fa008b
:10235800000006000000fa00d04080000080fa006b
:10236800000006000000fa00c04080002003b00012
:10237800c0408800d0408000c1f92f008080400014
:10238800c0408000808f500003003d00d040800096
:102398004006b100c0408800c04080000080fa00bc
:1023a800000006000000fa00c04080002003b100d1
:1023b800c0408800c140800030062000808f500057
:1023c80002003c0040062000c0408800c040800059
:1023d8000080fa00000006000000fa00d0408000eb
:1023e8002003b000d0408800d14080008038210010
:1023f800808f50000200340080382100d0408800cf
:10240800d04080000080fa00000006000000fa00ba
:10241800d04080002003b100d0408800c040800038
:102428004106200080804000d0408000808f50000e
:1024380003003400c04080004006b000d04088004f
:0c244800d04080000080fa000000060078
:020000040000fa
:020000040001f9
:102454003408000002000000000000000008000032
:102464000e00000000000000300a000020010000ff
:102474000200000001000000002a8d00010002009b
:10248400008a8d000100010000d08c0001000300cf
:1024940000968d0007000000008c8c0007000200ed
:1024a400007e8e000700010000be8c0007000300c0
:1024b40000d08c000200000000d08c00020002005a
:1024c40000228e000200010000e28c0002000300e2
:1024d40000be8c000800000000be8c000800020052
:1024e40000a08e000800010000188d000800030001
:1024f40000e28c000d00000000e28c000d000200e0
:1025040000f48e000d000100002a8d000d00030070
:1025140000188d000f00000000188d000f0002004d
:1025240000528f000f000100008c8c000f0003008c
:10253400002a8d0003000400007e8d0004000400c6
:10254400008a8d000300000000e28d0003000100fa
:1025540000028e000400000000a28d0004000100af
:1025640000c28d000400030000968d0003000300e8
:1025740000968d000500040000388e000500000060
:10258400004e8e000500010000668e000500030069
:1025940000be8c000a00000000cc8e000a0001007e
:1025a40000e08e000a00020000b68e000a0003005c
:1025b40000e28c000e00030000fe8e000e000000fe
:1025c400000a8f000e00010000228f0000000500a9
:1025d400003a8f0010000000008c8c0010000200f4
:1025e400008a8d0010000100008c8c001100060090
:1025f400005e8f00280800000400000002000000b4
:1026040011000600000000002c0800000400000077
:10261400000000003008000004000000000000007a
:102624000e0800000a000000000000003608000048
:102634000200000002000000010000003c0800004d
:10264400f401000002000000ff7f000040aa2a00fd
:1026540000209900195515004912000010390e0088
:10266400cd0ca3000bab0a00d9092500098808008a
:1026740000088700071c0700bd0666000618060050
:10268400d1059100055505001f05ec0004be0400aa
:1026940092046a00044404002104000004e10300dd
:1026a400c403a800038e030076035e0003480300fe
:1026b40033031f00030c0300fa02e90002d80200ee
:1026c400c802b90002ab02009d028f000282020020
:1026d40076026a00025f020054024900023f0200cf
:1026e40035022b0002220200190211000208020026
:1026f4000002f80001f00100e901e20001db010041
:10270400d401ce0001c70100c101bb0001b5010025
:10271400af01aa0001a401009f019a0001950100e4
:1027240090018b000186010081017d000179010087
:1027340074017000016c0100680164000160010013
:102744005d0159000155010052014e00014b010089
:1027540048014400014101003e013b0001380100f1
:1027640035013200012f01002d012a00012701004b
:1027740025012200011f01001d011a00011801009a
:1027840016011300011101000f010d00010a0100df
:1027940008010600010401000201000001fe00001e
:1027a400fc00fa0000f80000f600f50000f3000059
:1027b400f100ef0000ed0000ec00ea0000e800008a
:1027c400e700e50000e40000e200e00000df0000b4
:1027d400dd00dc0000da0000d900d80000d60000db
:1027e400d500d30000d20000d100cf0000ce0000fd
:1027f400cd00cc0000ca0000c900c80000c700001a
:10280400c500c40000c30000c200c10000c0000035
:10281400bf00bd0000bc0000bb00ba0000b900004e
:10282400b800b70000b60000b500b40000b3000063
:10283400b200b10000b00000af00ae0000ad000077
:10284400ac00ac0000ab0000aa00a90000a8000086
:10285400a700a60000a50000a500a40000a3000096
:10286400a200a10000a10000a0009f00009e0000a3
:102874009e009d00009c00009b009b00009a0000ad
:1028840099009800009800009700960000960000b8
:1028940095009400009400009300920000920000c0
:1028a40091009000009000008f008e00008e0000c8
:1028b4008d008d00008c00008b008b00008a0000ce
:1028c4008a008900008900008800870000870000d2
:1028d40086008600008500008500840000840000d6
:1028e4008300000018080000080000000000000039
:1028f4000030000000100000000000000040000054
:1029040000020000000000000010000000100000a1
:1029140000000000000c00000004000000000000a3
:102924003808000002000000000000003a0800001f
:102934000200000000000000200800000800000061
:0829440000000000000000008b
:020000040000fa
:020000040001f9
:10294c004600f8004800f8004a00f8004400f8007f
:10295c003400f8003600f800881f78008a1f7800d1
:10296c00080b20002802880088ff28003802880005
:10297c00046380000400ca00749f80001001f00002
:10298c008400cd0005f027001301c0000400cd0029
:10299c0004638800709f80000800210048028800b2
:1029ac00589f80005802880061fd8100689f80005c
:1029bc00001c7800689f8800eabb23004618c300ff
:1029cc00018009004618c4000000cd00809f8800db
:1029dc000a002400d46080003108820001800800c5
:1029ec00020000009a0278001301c0003a00cd00ea
:1029fc0020608000283f2100480288000860800089
:102a0c00580288003108820018608000001c780091
:102a1c00186088000a0024004618c30001800900d1
:102a2c004618c4000000cd00306088006160800052
:102a3c000100c8000400cd00756080001301c000c7
:102a4c000000cd0040608800a2608000b260880069
:102a5c00283f2100310882005200c3000180090088
:102a6c005000f0004500c8000300cd00f300b0009a
:102a7c00f22f20000218e6000700370011000900b1
:102a8c000310d90000027800a56080001301c0007b
:102a9c000000cd00b06088002260800030608000b3
:102aac0000025100b56080001301c0000000cd0091
:102abc00c06088000a002400c760800031088200d2
:102acc0018608000b8027800018008000200000045
:102adc004318c5000600c9003a00cd008a10240036
:102aec00b4618000c1618000018008000200000018
:102afc009a0278001301c0003a00cd0030618000ca
:102b0c00284f210048028800e861800058028800a4
:102b1c00f861800018017800001c7800f8618800ca
:102b2c00284721004802880018618000580288005c
:102b3c00c161800028618000021c78002861880037
:102b4c008a1024004618c300018009004618c400ee
:102b5c000000cd0060618800826180009261880075
:102b6c0028472100c16180005200c3000180090088
:102b7c005000f0004500c8000300cd00f300b00089
:102b8c00f22f20000218e6000700370011000900a0
:102b9c000310d90000027800856180001301c00089
:102bac000000cd009061880032618000606180007f
:102bbc0000025100956180001301c0000000cd009f
:102bcc00a0618800446188008a102400a7618000fd
:102bdc00c161800028618000b80278000180080083
:102bec00020000004318c5000600c9003a00cd00e1
:102bfc00285721004802880088628000580288000b
:102c0c0000000000b4628000986280001803780015
:102c1c00041c780098628800d56280001301c400ff
:102c2c000000cd00f0628800c56280001301c00076
:102c3c000000cd00e0628800000000004f05780025
:102c4c004f0478003600f9003400f9004400f90014
:102c5c004a00f9004800f9004600f90000000000a5
:102c6c00000006000000fa000300070071000700d6
:102c7c000080fa00000006000000fa00004180000d
:102c8c008000400040302800008040001000780098
:102c9c00706288000080fa00000006000200fa0052
:102cac00000f78009e0078000141880000418000f0
:102cbc008000400040302800008040001000780068
:102ccc00706288000080fa00000006000000fa0024
:102cdc00004180000080fa00000006000200fa00ab
:102cec000000eb00000f7800004180000000e800bd
:102cfc000041880001418000b0022000808f50000c
:102d0c0005003400b00220000041880010002000b3
:102d1c00000f780001003700d7ff07001e00780075
:102d2c000080fa00000006000200fa000000eb0030
:102d3c00000f7800004180000000e900004188008d
:102d4c0000418000e90f500005003c00a00020006d
:102d5c000041880010002000000f780001003700af
:102d6c00c5ff07001e0078000080fa000000060076
:102d7c000000fa00104180000080fa0000000600fc
:102d8c000200fa00000f78009e00780011418800c4
:102d9c00020007000080fa00000006000000fa00a4
:102dac00104180000000e00007003400b002200059
:102dbc002041880010418000b102200000805000aa
:102dcc00304188000d003700104180000000e00009
:102ddc0006003d0010418000b002b0002041880088
:102dec00b00220003041880004003700b0022000ff
:102dfc0030418800b0022000204188003041800022
:102e0c008000400040302800008040001000780016
:102e1c00d0628800204180008000400040302800b3
:102e2c000080400010007800c06288000080fa002a
:102e3c00000006000000fa002228ef00b00220007b
:102e4c0030418800b00220002041880030418000d1
:102e5c0080004000403028000080400010007800c6
:102e6c00d062880020418000800040004030280063
:102e7c000080400010007800c06288000080fa00da
:102e8c00000006000200fa000000eb00000f7800c2
:102e9c0010418000ee0f500005003c0010418000f6
:102eac000000e80010418800bcff0700020037005a
:102ebc0010002000000f78001e0078000080fa003f
:102ecc00000006000200fa000000eb00000f780082
:102edc0010418000ee0f40000500350010418000cd
:102eec000000e90010418800acff07000200370029
:102efc0010002000000f78001e0078000080fa00ff
:102f0c00000006004600f8004800f8004a00f800ef
:102f1c004400f8003400f8003600f800881f7800f0
:102f2c00891f7800280b200028028800136380007a
:102f3c000002eb00256380001100090043aad800b1
:102f4c00f2ff27000288e6000000e8000000d10034
:102f5c003063880099638000f1ff2700416388008b
:102f6c00f14521000100e600d497040000000000a8
:102f7c00f0ff2700801c78003263800011000900ec
:102f8c000208d900f2ff27000288e6000000e800e2
:102f9c0040638800e297040000000000306380006a
:102fac00640020000401b800e48724000403b80086
:102fbc0087004100811c780034638000f5ff2f00ee
:102fcc000521b8000201d0008381d20002f0a700d5
:102fdc008301e8008301e80063638800c18320005b
:102fec0017002000646380000721b8008703e80005
:102ffc00c00f200000b8e6001c00370052638800a8
:10300c006bccaf000201ea00f0ff27000202600067
:10301c0008c820005210c300040378005210c000ee
:10302c0003000800030000001381c1000680cd00de
:10303c005210c400000000008006cd006becaf0005
:10304c000000ea0000027800b10278001301c00011
:10305c000000cd0000027800456380001301c00021
:10306c000000cd00801c7800deff3700000000005f
:10307c00a863210098027800926380000281e80026
:10308c00f900080004000000120278005310c00080
:10309c000000cd00001978000000000001002300a2
:1030ac0082638000f9000800020000002200780012
:1030bc0080187800000000001201c30000002300fb
:1030cc00f4010800010000003000c90000000000fd
:1030dc0026e0af000010cb000000000045022000ed
:1030ec005500df006f404000f003b2000001e80023
:1030fc000200c800f1ff27008208de0022018000d8
:10310c00110009000208d9000000000080027800bc
:10311c0001002300f40108000400000011027800f3
:10312c001301c0000000cd008018780000000000e2
:10313c00cf0478004f0478003600f9003400f90011
:10314c004400f9004a00f9004800f9004600f90073
:10315c00000006004600f8004800f8004a00f8009d
:10316c004400f8003400f8003600f800881f78009e
:10317c00891f7800280b2000280288001363800028
:10318c000002eb00256380001100090043aad8005f
:10319c00f2ff27000288e6000000e8000000d100e2
:1031ac0030638800c9638000f1ff27004163880009
:1031bc00f14521000100e600fc980400000000002d
:1031cc00f0ff2700801c780032638000110009009a
:1031dc000208d900f2ff27000288e6000000e80090
:1031ec00406388000a9904000000000030638000ee
:1031fc00640020000401b800e48724000403b80034
:10320c0087004100811c780034638000f5ff2f009b
:10321c000521b8000201d0008381d20002f0a70082
:10322c008301e8008301e80063638800c183200008
:10323c0017002000646380000721b8008703e800b2
:10324c00c00f200000b8e6001c0037005263880055
:10325c006bccaf000201ea00f0ff27000202600015
:10326c0008c820005210c300040378005210c0009c
:10327c0003000800030000001381c1000680cd008c
:10328c005210c400000000008006cd006becaf00b3
:10329c000000ea0000027800b10278001301c000bf
:1032ac000000cd0000027800456380001301c000cf
:1032bc000000cd00801c7800deff3700000000000d
:1032cc00a863210098027800c26380000281e800a4
:1032dc00f900080004000000120278005310c0002e
:1032ec000000cd000019780000000000a13e230072
:1032fc00b2638000f9000800020000002200780090
:10330c0080187800000000001201c300a03e2300ca
:10331c00f4010800010000003000c90000000000aa
:10332c0026e0af000010cb0000000000450220009a
:10333c005500df006f404000f003b2000001e800d0
:10334c000200c800f1ff27008208de002201800085
:10335c00110009000208d90000000000800278006a
:10336c00a13e2300f40108000400000011027800c3
:10337c001301c0000000cd00801878000000000090
:10338c00cf0478004f0478003600f9003400f900bf
:10339c004400f9004a00f9004800f9004600f90021
:1033ac00000006000200fa005116800000102000f8
:1033bc00008060000000e00014003a002040800013
:1033cc000000e00005003a001000200020408800ba
:1033dc0040002000404088000628ef00304080006c
:1033ec000000e8003040880031408000007122006d
:1033fc00808f500014003a000001200040408800eb
:10340c0010002000604088000f0037002040800032
:10341c000000e0000c0032000428ef006040800047
:10342c000000e000020032000c28ef00060037001c
:10343c0031408000f0702200808f500002003c0070
:10344c00800020004040880051168000000c2000b5
:10345c00008060004200de000040880010408000c8
:10346c00c400dd0000408000808f50003c00320022
:10347c00014080001040800001007000000f7800b7
:10348c00504080000000e000240032001e00780054
:10349c00f30f50001e003200f30f500007003e00e7
:1034ac00e20f500016003200f00f500014003200f2
:1034bc00e10f5000160032002600370031022000c8
:1034cc00810f50000e00320031022000810f50009d
:1034dc0004003e0001022000810f50000c0032005d
:1034ec001c00370011032000810f50000400320033
:1034fc0021032000810f5000050032001500370019
:10350c00100020004040880000000000110037002f
:10351c0020002000404088000e0037001e0078007c
:10352c0031022000810f50000400320021032000e2
:10353c00810f5000040032000600370010002000fc
:10354c0040408800030037002000200040408800e5
:10355c0000000000004080004480de001040880025
:10356c000080fa00000006000000fa0040408000d5
:10357c000080fa00000006000000fa001000200095
:10358c00504088000080fa00000006000000fa009d
:10359c000a28ef000080fa00000006000000fa0084
:1035ac005016800080007800000c20000080600025
:1035bc000040880000408000104088000828ef0080
:1035cc000080fa00000006000000fa00f3ff07007c
:0c35dc000a28ef000080fa000000060042
:020000040000fa
:020000040001f9
:1035e8000600fa002007980056fb0700000f780035
:1035f80058fb070010079800ae0090001e007800e6
:10360800c9f707002e0090000000e800800078004d
:103618001e009000c4f707000080fa0000000600b2
:103628000200fa00aafd0700000f7800f00f200042
:103638001e0f60001e0078008000eb00baf707003c
:103648000080fa00000006000200fa000000eb000b
:103658003ff70700000f780011c0b300b002200048
:103668001e017800800f510001003c008040eb00f3
:1036780010c0b3001e017800e90f510001003400aa
:103688000040eb0000c070000004e00003003200be
:1036980040012000000f7800e1ff07001e007800bd
:1036a8007ffd07000080fa00000006000600fa000f
:1036b800200798002e00900025f70700000f7800db
:1036c8002e0090000000e80021f70700100798007e
:1036d800300620009e007800808f500004003400df
:1036e8001e0090002003b1009e0f50000c003d000a
:1036f80040062000000f780080382100100798004d
:10370800ae0090001e00780087f707002e0090009a
:103718000000e800800078001e00900082f7070093
:103728009e00900080382100808f500005003c00ea
:10373800220320009e0041001e009000808f500050
:103748000c00340080382100100798004006200043
:10375800000f7800ae0090001e00780072f7070096
:103768002e0090000000e800800078001e00900005
:103778006df707009e0090001e007800e8fa070029
:103788000080fa00000006000000fa00710007003f
:10379800adff07000080fa00000006000200fa00f2
:1037a80072ff0700000f78001e0078000000e0009c
:1037b8001f0032009e007800708060000000e0006a
:1037c8000200320030002000210037009e007800ff
:1037d800688060000000e000020032004000200025
:1037e8001b0037009e007800648060000000e00045
:1037f8000200320020002000150037009e007800eb
:1038080061806000004078000004e000020032009f
:103818000000eb000e0037009e0078006280600018
:103828000000e0000200320010002000080037000d
:103838008f000700000f78001e0078000000e000ed
:1038480002003d0050002000010037006000200009
:103858000080fa00000006000200fa00cfff07000f
:103868005041880050418000e60f50003700320078
:103878000000eb00000f78002f0037001e007800d2
:103888006600b9008000780000a320000080400096
:103898009000780040418000808f5000080032007e
:1038a8001e0078006600b9008000780000a32000a0
:1038b80000804000100078000000e0001d003a0081
:1038c8001e0078006600b900000078008080e800db
:1038d80000a3200000804000900078005041800044
:1038e800808f5000090032001e0078006600b90081
:1038f800000078008080e80000a3200000804000dd
:1039080010007800e80f50000a003a001e00780006
:103918006600b90000007800e400400000a3200021
:10392800008040001000780000000100404188003d
:10393800050037001e0fe8009e007800f002200006
:10394800808f5000cdff360015ff07000080fa0079
:10395800000006000200fa000c000700000f7800c3
:103968001e00780051ff07000080fa0000000600e2
:103978000200fa0005000700000f78001e0078001a
:1039880017ff07000080fa00000006000200fa0096
:10399800101680007c006000704188007041800033
:1039a800ec0f500017003200ec0f500007003c00ed
:1039b800e40f50001c003200e80f500020003200d5
:1039c8000000e0002100320023003700f40f50000f
:1039d8000f003200f40f500003003c00f00f5000bd
:1039e800140032001c003700f80f50000b003200a2
:1039f800fc0f500018003a0020002000000f78004b
:103a08001800370040002000000f7800150037002c
:103a180060002000000f78001200370080002000ae
:103a2800000f78000f003700a0002000000f78007a
:103a38000c003700c0002000000f78000900370094
:103a4800e0002000000f7800060037000001200089
:103a5800000f78000300370020002000000f7800d6
:103a6800000000001e0078000080fa000000060038
:103a78000000fa00101680007c0060007041880089
:103a88007141800060418000808f50000700320043
:103a980040062000d900070070418000604188007e
:103aa8007041800000f0a0007041880070418000e3
:103ab8000080fa00000006000000fa00ecff070092
:103ac800704188007041800000f0a10070418800ba
:103ad8007041800060418800704180000080fa00d9
:103ae800000006000000fa0090022000303a88002a
:103af800213a8000f0f32f0000806000203a88000f
:103b0800213a800000fe2f0000806000203a8800e3
:103b18001200200080072000a10920003374200033
:103b28008049780081497800824978001200200095
:103b3800600420007105200023742000804978006b
:103b4800814978008249780000000000113a80001d
:103b5800000027008080600000002100808f500056
:103b6800faff3a0000000000113a8000000220002d
:103b7800008060000000e000fbff320000702000c1
:103b8800503a8800e01f2000803b8800e0012000b8
:103b980000168800301c200040168800d0ff2f0037
:103ba800601988001000200040038800001c2600cf
:103bb80050038800cd02a900cd22a90029f50700ed
:103bc800d0b2220010638800d1f8070049f9070035
:103bd80082f90700b1f90700f0b40700eafe070010
:103be800baf7070020fc070078fe0700b1f80700c5
:103bf80040418800170007002c000700401f2000e4
:103c08007e000700510007005116800000102000b8
:103c1800008060000000e0000a003a0094f7070006
:103c2800a000200075000700511680000010200039
:103c3800008060000000e000f9ff3200400620002c
:103c48006e0007000140fe003efb070002ff070070
:103c5800fcff37000000fa002023ef00d0ff2f0000
:103c6800601988002223ef00200020002019880016
:103c780010002000401988002143a8000119800085
:103c88000030200001007000001988000119800030
:103c9800f0f12f00008060000019880021e3a800df
:103ca8002023a8000080fa00000006000000fa00a7
:103cb800f2e3a800f3e3a800f243a900510680004c
:103cc800007020000100700050068800f343a9002e
:103cd80051068000f0ff2800008060005006880030
:103ce800f183a800811f800000f82f008080600009
:103cf8007003200001007000801f8800f103a800f5
:103d0800f423ef0000002400b01f88000000240006
:103d1800b01f880000002400b01f880000002400a5
:103d2800b01f880000002400c01f88000000240085
:103d3800c01f880000002400c01f88000000240065
:103d4800c01f88000080fa00000006000000fa008a
:103d58008dc0a9008de0a9009dc0a8009de0a90024
:103d6800f1e3a8000080fa00000006000000fa0055
:103d78008dc0a9008de0a9009dc0a9009de0a90003
:103d8800f1e3a9000080fa00000006000200fa0032
:103d9800000f78001e0078000000e00002003a00e2
:103da80010002000000f7800803e20009e00780060
:103db800808f500002003600803e2000000f7800ff
:103dc8001e0078008000eb006011b80004a02500f8
:103dd800252620006033b800cab307000424240055
:103de800f50020006033b8005db307000000be0096
:103df800bc0007000080fa00000006000200fa007c
:103e0800000f78001e0078000000e00002003a0071
:103e180010002000000f7800007122009e0078003a
:103e2800808f50000200360000712200000f7800d9
:103e38001e0078008000eb006011b80004a0250087
:103e4800252620006033b800aeb30700843e20006a
:103e5800050020006033b80041b307000000be0031
:103e6800a00007000080fa00000006000000fa0029
:103e780000902000d10320009a0007000080fa007b
:103e8800000006004600f8004800f8004a00f80064
:103e98004400f8003400f8003600f800881f780065
:103ea800080b200028028800a23e2300437d23003f
:103eb800f401080001000000b219ea000000000047
:103ec800f363800013007800f1ff270000804000b2
:103ed8008009780002002300437d2300f4010800d4
:103ee800030000003202780093027800851942002e
:103ef80000000000417d2300f401080001000000db
:103f08009118ea0000000000f163800011007800b9
:103f1800f2ff270080084100e1bb2300427d230017
:103f2800f4010800020000003200780080187800d0
:103f3800000000004f0478003600f9003400f90052
:103f48004400f9004a00f9004800f9004600f90069
:103f5800000006004600f8004800f8004a00f80093
:103f68004400f8003400f8003600f800881f780094
:103f7800020f200022028800206280003162800047
:103f8800810040003162880047ccaf008100ea0020
:103f9800f0ff27000102600008c820005210c3008b
:103fa800040378005210c00003000800030000005a
:103fb8001381c1000680cd005210c4008006cd00d8
:103fc80047ecaf000000ea0000027800556280006c
:103fd8001301c0000400cd00756280001301c00009
:103fe8000000cd00606288004f0478003600f900b8
:103ff8003400f9004400f9004a00f9004800f900cb
:104008004600f90000000000000006000200fa0067
:10401800000f78009e007800814088000080fa0038
:10402800000006000000fa00804080000080fa00ce
:10403800000006000000fa008040800090408800e0
:104048000080fa00000006000000fa00904080009e
:10405800804088000080fa00000006000000fa0096
:1040680010002000b04188000080fa00000006001f
:104078000000fa003628ef000080fa000000060071
:104088001080ba00000006001000ba000000060008
:10409800801f78000500fc0050052000303b880098
:1040a800a00a2000303b880061e7a800000000005b
:1040b8000000000061e7af00feff37004f00780006
:1040c800000006008088bb000000060080c8bb0016
:1040d800000006008008bb00000006008048bb0006
:0440e80000000600ce
:020000040000fa
:020000040001f9
:1040ec00f03fb1000180b10006003500ee0309007d
:1040fc0000000000403fb1000180b100fbff3d001b
:10410c001000b000203fb000020035000080090014
:08411c00000000000000060095
:020000040000fa
:0200000401f009
:04000000ffffff00ff
:020000040000fa
:0200000401f009
:04000400ffffff00fb
:020000040000fa
:0200000401f009
:04000800ffffff00f7
:020000040000fa
:0200000401f009
:04000c008000000070
:020000040000fa
:0200000401f009
:040010006300000089
:020000040000fa
:0200000401f009
:040014005f00000089
:020000040000fa
:0200000401f009
:04001800f7000000ed
:020000040000fa
:0200000401f009
:04001c00dfff000002
:020000040000fa
:0200000401f009
:0400200002ff0000db
:00000001FF
